{
  "contractName": "Ballot",
  "abi": [
    {
      "inputs": [],
      "payable": false,
      "stateMutability": "nonpayable",
      "type": "constructor"
    },
    {
      "constant": true,
      "inputs": [
        {
          "internalType": "string",
          "name": "",
          "type": "string"
        }
      ],
      "name": "materials",
      "outputs": [
        {
          "internalType": "uint256",
          "name": "",
          "type": "uint256"
        }
      ],
      "payable": false,
      "stateMutability": "view",
      "type": "function"
    },
    {
      "constant": false,
      "inputs": [],
      "name": "doors",
      "outputs": [
        {
          "internalType": "uint256",
          "name": "numDoors",
          "type": "uint256"
        }
      ],
      "payable": false,
      "stateMutability": "nonpayable",
      "type": "function"
    },
    {
      "constant": false,
      "inputs": [],
      "name": "getDoors",
      "outputs": [],
      "payable": false,
      "stateMutability": "nonpayable",
      "type": "function"
    },
    {
      "constant": true,
      "inputs": [],
      "name": "production",
      "outputs": [
        {
          "components": [
            {
              "internalType": "string",
              "name": "Name",
              "type": "string"
            },
            {
              "internalType": "uint256",
              "name": "Quantity",
              "type": "uint256"
            }
          ],
          "internalType": "struct Ballot.Product[]",
          "name": "",
          "type": "tuple[]"
        }
      ],
      "payable": false,
      "stateMutability": "view",
      "type": "function"
    }
  ],
  "bytecode": "0x60806040523480156200001157600080fd5b50602460006040516200002490620004a8565b9081526020016040518091039020819055506024600060405162000048906200047a565b908152602001604051809103902081905550600860006040516200006c90620004bf565b90815260200160405180910390208190555060146000604051620000909062000549565b90815260200160405180910390208190555060106000604051620000b49062000491565b90815260200160405180910390208190555060106000604051620000d89062000504565b90815260200160405180910390208190555060106000604051620000fc90620004ed565b9081526020016040518091039020819055506032600060405162000120906200051b565b90815260200160405180910390208190555060326000604051620001449062000560565b90815260200160405180910390208190555060086000604051620001689062000532565b908152602001604051809103902081905550600160006040516200018c90620004d6565b90815260200160405180910390208190555062000582565b6000620001b360058362000577565b91507f7261696c730000000000000000000000000000000000000000000000000000006000830152600582019050919050565b6000620001f560068362000577565b91507f70756c6c657900000000000000000000000000000000000000000000000000006000830152600682019050919050565b600062000237600b8362000577565b91507f737465656c5f70616e656c0000000000000000000000000000000000000000006000830152600b82019050919050565b60006200027960068362000577565b91507f73656e736f7200000000000000000000000000000000000000000000000000006000830152600682019050919050565b6000620002bb600a8362000577565b91507f636f6e74726f6c6c6572000000000000000000000000000000000000000000006000830152600a82019050919050565b6000620002fd600a8362000577565b91507f737465656c6361626c65000000000000000000000000000000000000000000006000830152600a82019050919050565b60006200033f60058362000577565b91507f6d6f746f720000000000000000000000000000000000000000000000000000006000830152600582019050919050565b60006200038160088362000577565b91507f6c65646c696768740000000000000000000000000000000000000000000000006000830152600882019050919050565b6000620003c360068362000577565b91507f73637265656e00000000000000000000000000000000000000000000000000006000830152600682019050919050565b600062000405600a8362000577565b91507f737465656c7368656574000000000000000000000000000000000000000000006000830152600a82019050919050565b60006200044760068362000577565b91507f627574746f6e00000000000000000000000000000000000000000000000000006000830152600682019050919050565b60006200048782620001a4565b9150819050919050565b60006200049e82620001e6565b9150819050919050565b6000620004b58262000228565b9150819050919050565b6000620004cc826200026a565b9150819050919050565b6000620004e382620002ac565b9150819050919050565b6000620004fa82620002ee565b9150819050919050565b6000620005118262000330565b9150819050919050565b6000620005288262000372565b9150819050919050565b60006200053f82620003b4565b9150819050919050565b60006200055682620003f6565b9150819050919050565b60006200056d8262000438565b9150819050919050565b600081905092915050565b61082180620005926000396000f3fe608060405234801561001057600080fd5b506004361061004c5760003560e01c806305e88b69146100515780631ca679c01461006f578063359919111461007957806391347df414610097575b600080fd5b6100596100c7565b604051610066919061068b565b60405180910390f35b6100776101d2565b005b6100816101dd565b60405161008e91906106ad565b60405180910390f35b6100b160048036036100ac91908101906104d8565b610309565b6040516100be91906106ad565b60405180910390f35b60606003805480602002602001604051908101604052809291908181526020016000905b828210156101c95783829060005260206000209060020201604051806040016040529081600082018054600181600116156101000203166002900480601f0160208091040260200160405190810160405280929190818152602001828054600181600116156101000203166002900480156101a75780601f1061017c576101008083540402835291602001916101a7565b820191906000526020600020905b81548152906001019060200180831161018a57829003601f168201915b50505050508152602001600182015481525050815260200190600101906100eb565b50505050905090565b6101da6101dd565b50565b60006101e7610337565b60405180606001604052806002815260200160028152602001600181525090508060000151600060405161021a90610676565b908152602001604051809103902060008282548161023457fe5b0492505081905591506040518060400160405280600481526020017f446f6f72000000000000000000000000000000000000000000000000000000008152506001600001908051906020019061028b929190610358565b508160018001819055508160018001819055506003600190806001815401808255809150509060018203906000526020600020906002020160009091929091909150600082018160000190805460018160011615610100020316600290046102f49291906103d8565b50600182015481600101555050508191505090565b6000818051602081018201805184825260208301602085012081835280955050505050506000915090505481565b60405180606001604052806000815260200160008152602001600081525090565b828054600181600116156101000203166002900490600052602060002090601f016020900481019282601f1061039957805160ff19168380011785556103c7565b828001600101855582156103c7579182015b828111156103c65782518255916020019190600101906103ab565b5b5090506103d4919061045f565b5090565b828054600181600116156101000203166002900490600052602060002090601f016020900481019282601f10610411578054855561044e565b8280016001018555821561044e57600052602060002091601f016020900482015b8281111561044d578254825591600101919060010190610432565b5b50905061045b919061045f565b5090565b61048191905b8082111561047d576000816000905550600101610465565b5090565b90565b600082601f83011261049557600080fd5b81356104a86104a3826106f5565b6106c8565b915080825260208301602083018583830111156104c457600080fd5b6104cf83828461078b565b50505092915050565b6000602082840312156104ea57600080fd5b600082013567ffffffffffffffff81111561050457600080fd5b61051084828501610484565b91505092915050565b6000610525838361061b565b905092915050565b600061053882610731565b6105428185610754565b93508360208202850161055485610721565b8060005b8581101561059057848403895281516105718582610519565b945061057c83610747565b925060208a01995050600181019050610558565b50829750879550505050505092915050565b60006105ad8261073c565b6105b78185610765565b93506105c781856020860161079a565b6105d0816107cd565b840191505092915050565b60006105e8600b83610776565b91507f737465656c5f70616e656c0000000000000000000000000000000000000000006000830152600b82019050919050565b6000604083016000830151848203600086015261063882826105a2565b915050602083015161064d6020860182610658565b508091505092915050565b61066181610781565b82525050565b61067081610781565b82525050565b6000610681826105db565b9150819050919050565b600060208201905081810360008301526106a5818461052d565b905092915050565b60006020820190506106c26000830184610667565b92915050565b6000604051905081810181811067ffffffffffffffff821117156106eb57600080fd5b8060405250919050565b600067ffffffffffffffff82111561070c57600080fd5b601f19601f8301169050602081019050919050565b6000819050602082019050919050565b600081519050919050565b600081519050919050565b6000602082019050919050565b600082825260208201905092915050565b600082825260208201905092915050565b600081905092915050565b6000819050919050565b82818337600083830152505050565b60005b838110156107b857808201518184015260208101905061079d565b838111156107c7576000848401525b50505050565b6000601f19601f830116905091905056fea365627a7a7231582085c2caff13b8f33b9ad1fd5c6d8f781197bbac2541f9cea41f411f845c0f36166c6578706572696d656e74616cf564736f6c63430005100040",
  "source": "// SPDX-License-Identifier: MIT\npragma solidity >=0.4.22 <0.8.0;\npragma experimental ABIEncoderV2;\n\ncontract Ballot {\n\n    \n    mapping (string => uint256) public materials;\n    \n     struct Product {\n        string Name;\n        uint256 Quantity;\n    }\n    \n    struct Door{ \n        uint256 steel_panel; \n        uint256 rails; \n        uint256 sensor;\n    } \n\n    struct Frame{\n        uint256 steelsheet;\n        uint256 pulley;\n        uint256 motor; \n        uint256 steelcable;\n    }\n    \n    struct Button{\n        uint256 ledlight;\n        uint256 button;\n    }\n    \n    struct Display{\n        uint256 screen;\n    }\n    \n    struct Battery{\n        uint256 controller;\n    }\n    \n    Product productStruct;\n    Product[] productList;    \n    constructor() public {\n        \n        materials[\"steel_panel\"] = 36;\n        materials[\"rails\"] = 36;\n        materials[\"sensor\"] = 8;\n        materials[\"steelsheet\"] = 20;\n        materials[\"pulley\"] = 16;\n        materials[\"motor\"] = 16;\n        materials[\"steelcable\"] = 16;\n        materials[\"ledlight\"] = 50;\n        materials[\"button\"] = 50;\n        materials[\"screen\"] = 8;\n        materials[\"controller\"] = 1;\n    }\n    \n    function doors() public returns (uint256 numDoors) {\n        Door memory door1 = Door(2, 2, 1);\n        numDoors = materials[\"steel_panel\"] /= door1.steel_panel;\n        productStruct.Name = \"Door\";\n        productStruct.Quantity = numDoors;\n        productStruct.Quantity = numDoors;\n        productList.push(productStruct);\n        return numDoors;\n    }\n    \n    function getDoors() public {\n        doors();\n    }\n    \n    function production() public view returns (Product[] memory) {\n        return productList;\n\n    }\n}\n",
  "sourcePath": "/home/mrcbilou/week12/contracts/Manufacturing.sol",
  "compiler": {
    "name": "solc",
    "version": "0.5.16+commit.9c3226ce.Emscripten.clang"
  },
  "schemaVersion": "3.3.2",
  "updatedAt": "2020-12-08T02:49:14.533Z",
  "devdoc": {
    "methods": {}
  },
  "userdoc": {
    "methods": {}
  }
}