{
  "contractName": "Manufacturing",
  "abi": [
    {
      "inputs": [],
      "payable": false,
      "stateMutability": "nonpayable",
      "type": "constructor"
    },
    {
      "constant": true,
      "inputs": [
        {
          "internalType": "uint256",
          "name": "",
          "type": "uint256"
        }
      ],
      "name": "clients",
      "outputs": [
        {
          "internalType": "address",
          "name": "",
          "type": "address"
        }
      ],
      "payable": false,
      "stateMutability": "view",
      "type": "function"
    },
    {
      "constant": true,
      "inputs": [
        {
          "internalType": "string",
          "name": "",
          "type": "string"
        }
      ],
      "name": "materials",
      "outputs": [
        {
          "internalType": "uint256",
          "name": "",
          "type": "uint256"
        }
      ],
      "payable": false,
      "stateMutability": "view",
      "type": "function"
    },
    {
      "constant": false,
      "inputs": [],
      "name": "doors",
      "outputs": [
        {
          "internalType": "uint256",
          "name": "numDoors",
          "type": "uint256"
        }
      ],
      "payable": false,
      "stateMutability": "nonpayable",
      "type": "function"
    },
    {
      "constant": false,
      "inputs": [],
      "name": "frames",
      "outputs": [
        {
          "internalType": "uint256",
          "name": "numFrames",
          "type": "uint256"
        }
      ],
      "payable": false,
      "stateMutability": "nonpayable",
      "type": "function"
    },
    {
      "constant": false,
      "inputs": [],
      "name": "buttons",
      "outputs": [
        {
          "internalType": "uint256",
          "name": "numButtons",
          "type": "uint256"
        }
      ],
      "payable": false,
      "stateMutability": "nonpayable",
      "type": "function"
    },
    {
      "constant": false,
      "inputs": [],
      "name": "display",
      "outputs": [
        {
          "internalType": "uint256",
          "name": "numDisplay",
          "type": "uint256"
        }
      ],
      "payable": false,
      "stateMutability": "nonpayable",
      "type": "function"
    },
    {
      "constant": false,
      "inputs": [],
      "name": "batteries",
      "outputs": [
        {
          "internalType": "uint256",
          "name": "numBattery",
          "type": "uint256"
        }
      ],
      "payable": false,
      "stateMutability": "nonpayable",
      "type": "function"
    },
    {
      "constant": false,
      "inputs": [],
      "name": "getDoors",
      "outputs": [],
      "payable": false,
      "stateMutability": "nonpayable",
      "type": "function"
    },
    {
      "constant": false,
      "inputs": [],
      "name": "getFrames",
      "outputs": [],
      "payable": false,
      "stateMutability": "nonpayable",
      "type": "function"
    },
    {
      "constant": false,
      "inputs": [],
      "name": "getButtons",
      "outputs": [],
      "payable": false,
      "stateMutability": "nonpayable",
      "type": "function"
    },
    {
      "constant": false,
      "inputs": [],
      "name": "getDisplay",
      "outputs": [],
      "payable": false,
      "stateMutability": "nonpayable",
      "type": "function"
    },
    {
      "constant": false,
      "inputs": [],
      "name": "getBatteries",
      "outputs": [],
      "payable": false,
      "stateMutability": "nonpayable",
      "type": "function"
    },
    {
      "constant": true,
      "inputs": [],
      "name": "production",
      "outputs": [
        {
          "components": [
            {
              "internalType": "string",
              "name": "Name",
              "type": "string"
            },
            {
              "internalType": "uint256",
              "name": "Quantity",
              "type": "uint256"
            }
          ],
          "internalType": "struct Manufacturing.Product[]",
          "name": "",
          "type": "tuple[]"
        }
      ],
      "payable": false,
      "stateMutability": "view",
      "type": "function"
    },
    {
      "constant": false,
      "inputs": [],
      "name": "getProducts",
      "outputs": [
        {
          "components": [
            {
              "internalType": "string",
              "name": "Name",
              "type": "string"
            },
            {
              "internalType": "uint256",
              "name": "Quantity",
              "type": "uint256"
            }
          ],
          "internalType": "struct Manufacturing.Product[]",
          "name": "",
          "type": "tuple[]"
        }
      ],
      "payable": false,
      "stateMutability": "nonpayable",
      "type": "function"
    }
  ],
  "bytecode": "0x60806040523480156200001157600080fd5b50602460006040516200002490620004bf565b9081526020016040518091039020819055506024600060405162000048906200047a565b908152602001604051809103902081905550602460006040516200006c90620004d6565b908152602001604051809103902081905550602860006040516200009090620004a8565b90815260200160405180910390208190555060106000604051620000b49062000491565b90815260200160405180910390208190555060106000604051620000d8906200051b565b90815260200160405180910390208190555060106000604051620000fc9062000504565b90815260200160405180910390208190555060326000604051620001209062000532565b90815260200160405180910390208190555060326000604051620001449062000560565b90815260200160405180910390208190555060106000604051620001689062000549565b908152602001604051809103902081905550600160006040516200018c90620004ed565b90815260200160405180910390208190555062000582565b6000620001b360058362000577565b91507f7261696c730000000000000000000000000000000000000000000000000000006000830152600582019050919050565b6000620001f560068362000577565b91507f70756c6c657900000000000000000000000000000000000000000000000000006000830152600682019050919050565b600062000237600b8362000577565b91507f737465656c5f73686565740000000000000000000000000000000000000000006000830152600b82019050919050565b600062000279600b8362000577565b91507f737465656c5f70616e656c0000000000000000000000000000000000000000006000830152600b82019050919050565b6000620002bb60068362000577565b91507f73656e736f7200000000000000000000000000000000000000000000000000006000830152600682019050919050565b6000620002fd600a8362000577565b91507f636f6e74726f6c6c6572000000000000000000000000000000000000000000006000830152600a82019050919050565b60006200033f600a8362000577565b91507f737465656c6361626c65000000000000000000000000000000000000000000006000830152600a82019050919050565b60006200038160058362000577565b91507f6d6f746f720000000000000000000000000000000000000000000000000000006000830152600582019050919050565b6000620003c360088362000577565b91507f6c65646c696768740000000000000000000000000000000000000000000000006000830152600882019050919050565b60006200040560068362000577565b91507f73637265656e00000000000000000000000000000000000000000000000000006000830152600682019050919050565b60006200044760068362000577565b91507f627574746f6e00000000000000000000000000000000000000000000000000006000830152600682019050919050565b60006200048782620001a4565b9150819050919050565b60006200049e82620001e6565b9150819050919050565b6000620004b58262000228565b9150819050919050565b6000620004cc826200026a565b9150819050919050565b6000620004e382620002ac565b9150819050919050565b6000620004fa82620002ee565b9150819050919050565b6000620005118262000330565b9150819050919050565b6000620005288262000372565b9150819050919050565b60006200053f82620003b4565b9150819050919050565b60006200055682620003f6565b9150819050919050565b60006200056d8262000438565b9150819050919050565b600081905092915050565b61111280620005926000396000f3fe608060405234801561001057600080fd5b50600436106100ea5760003560e01c806363050f8b1161008c57806391347df41161006657806391347df4146101cb578063a8077666146101fb578063c29b2f2014610205578063f88af21d14610223576100ea565b806363050f8b14610199578063752f00a6146101a35780637ef91424146101c1576100ea565b80631ca679c0116100c85780631ca679c014610135578063359919111461013f57806351e971031461015d57806357f103e51461017b576100ea565b8063041ac087146100ef57806305e88b69146100f95780630c1b7c1e14610117575b600080fd5b6100f7610253565b005b61010161025e565b60405161010e9190610f33565b60405180910390f35b61011f610369565b60405161012c9190610f55565b60405180910390f35b61013d61047e565b005b610147610489565b6040516101549190610f55565b60405180910390f35b6101656105ac565b6040516101729190610f55565b60405180910390f35b6101836106c1565b6040516101909190610f55565b60405180910390f35b6101a16107eb565b005b6101ab6107f6565b6040516101b89190610f55565b60405180910390f35b6101c9610912565b005b6101e560048036036101e09190810190610bd9565b61091d565b6040516101f29190610f55565b60405180910390f35b61020361094b565b005b61020d610956565b60405161021a9190610f33565b60405180910390f35b61023d60048036036102389190810190610c1a565b610988565b60405161024a9190610f18565b60405180910390f35b61025b6106c1565b50565b60606003805480602002602001604051908101604052809291908181526020016000905b828210156103605783829060005260206000209060020201604051806040016040529081600082018054600181600116156101000203166002900480601f01602080910402602001604051908101604052809291908181526020018280546001816001161561010002031660029004801561033e5780601f106103135761010080835404028352916020019161033e565b820191906000526020600020905b81548152906001019060200180831161032157829003601f168201915b5050505050815260200160018201548152505081526020019060010190610282565b50505050905090565b60006103736109bb565b6040518060200160405280600181525090508060000151600060405161039890610eee565b90815260200160405180910390206000828254816103b257fe5b0492505081905591506040518060400160405280600681526020017f53637265656e0000000000000000000000000000000000000000000000000000815250600160000190805190602001906104099291906109ce565b50816001800181905550600360019080600181540180825580915050906001820390600052602060002090600202016000909192909190915060008201816000019080546001816001161561010002031660029004610469929190610a4e565b50600182015481600101555050508191505090565b610486610489565b50565b6000610493610ad5565b6040518060600160405280600281526020016002815260200160018152509050806000015160006040516104c690610ec4565b90815260200160405180910390206000828254816104e057fe5b0492505081905591506040518060400160405280600481526020017f446f6f7200000000000000000000000000000000000000000000000000000000815250600160000190805190602001906105379291906109ce565b50816001800181905550600360019080600181540180825580915050906001820390600052602060002090600202016000909192909190915060008201816000019080546001816001161561010002031660029004610597929190610a4e565b50600182015481600101555050508191505090565b60006105b6610af6565b604051806020016040528060018152509050806000015160006040516105db90610ed9565b90815260200160405180910390206000828254816105f557fe5b0492505081905591506040518060400160405280600781526020017f42617474657279000000000000000000000000000000000000000000000000008152506001600001908051906020019061064c9291906109ce565b508160018001819055506003600190806001815401808255809150509060018203906000526020600020906002020160009091929091909150600082018160000190805460018160011615610100020316600290046106ac929190610a4e565b50600182015481600101555050508191505090565b60006106cb610b09565b6040518060800160405280600a81526020016002815260200160028152602001600281525090508060000151600060405161070590610eaf565b908152602001604051809103902060008282548161071f57fe5b0492505081905591506040518060400160405280600581526020017f4672616d65000000000000000000000000000000000000000000000000000000815250600160000190805190602001906107769291906109ce565b508160018001819055506003600190806001815401808255809150509060018203906000526020600020906002020160009091929091909150600082018160000190805460018160011615610100020316600290046107d6929190610a4e565b50600182015481600101555050508191505090565b6107f36105ac565b50565b6000610800610b31565b604051806040016040528060018152602001600181525090508060200151600060405161082c90610f03565b908152602001604051809103902060008282548161084657fe5b0492505081905591506040518060400160405280600681526020017f427574746f6e00000000000000000000000000000000000000000000000000008152506001600001908051906020019061089d9291906109ce565b508160018001819055506003600190806001815401808255809150509060018203906000526020600020906002020160009091929091909150600082018160000190805460018160011615610100020316600290046108fd929190610a4e565b50600182015481600101555050508191505090565b61091a610369565b50565b6000818051602081018201805184825260208301602085012081835280955050505050506000915090505481565b6109536107f6565b50565b6060610960610489565b506109696106c1565b506109726107f6565b5061097b610369565b506109846105ac565b5090565b6004816001811061099557fe5b016000915054906101000a900473ffffffffffffffffffffffffffffffffffffffff1681565b6040518060200160405280600081525090565b828054600181600116156101000203166002900490600052602060002090601f016020900481019282601f10610a0f57805160ff1916838001178555610a3d565b82800160010185558215610a3d579182015b82811115610a3c578251825591602001919060010190610a21565b5b509050610a4a9190610b4b565b5090565b828054600181600116156101000203166002900490600052602060002090601f016020900481019282601f10610a875780548555610ac4565b82800160010185558215610ac457600052602060002091601f016020900482015b82811115610ac3578254825591600101919060010190610aa8565b5b509050610ad19190610b4b565b5090565b60405180606001604052806000815260200160008152602001600081525090565b6040518060200160405280600081525090565b6040518060800160405280600081526020016000815260200160008152602001600081525090565b604051806040016040528060008152602001600081525090565b610b6d91905b80821115610b69576000816000905550600101610b51565b5090565b90565b600082601f830112610b8157600080fd5b8135610b94610b8f82610f9d565b610f70565b91508082526020830160208301858383011115610bb057600080fd5b610bbb838284611065565b50505092915050565b600081359050610bd3816110b8565b92915050565b600060208284031215610beb57600080fd5b600082013567ffffffffffffffff811115610c0557600080fd5b610c1184828501610b70565b91505092915050565b600060208284031215610c2c57600080fd5b6000610c3a84828501610bc4565b91505092915050565b6000610c4f8383610e54565b905092915050565b610c6081611029565b82525050565b6000610c7182610fd9565b610c7b8185610ffc565b935083602082028501610c8d85610fc9565b8060005b85811015610cc95784840389528151610caa8582610c43565b9450610cb583610fef565b925060208a01995050600181019050610c91565b50829750879550505050505092915050565b6000610ce682610fe4565b610cf0818561100d565b9350610d00818560208601611074565b610d09816110a7565b840191505092915050565b6000610d21600b8361101e565b91507f737465656c5f73686565740000000000000000000000000000000000000000006000830152600b82019050919050565b6000610d61600b8361101e565b91507f737465656c5f70616e656c0000000000000000000000000000000000000000006000830152600b82019050919050565b6000610da1600a8361101e565b91507f636f6e74726f6c6c6572000000000000000000000000000000000000000000006000830152600a82019050919050565b6000610de160068361101e565b91507f73637265656e00000000000000000000000000000000000000000000000000006000830152600682019050919050565b6000610e2160068361101e565b91507f627574746f6e00000000000000000000000000000000000000000000000000006000830152600682019050919050565b60006040830160008301518482036000860152610e718282610cdb565b9150506020830151610e866020860182610e91565b508091505092915050565b610e9a8161105b565b82525050565b610ea98161105b565b82525050565b6000610eba82610d14565b9150819050919050565b6000610ecf82610d54565b9150819050919050565b6000610ee482610d94565b9150819050919050565b6000610ef982610dd4565b9150819050919050565b6000610f0e82610e14565b9150819050919050565b6000602082019050610f2d6000830184610c57565b92915050565b60006020820190508181036000830152610f4d8184610c66565b905092915050565b6000602082019050610f6a6000830184610ea0565b92915050565b6000604051905081810181811067ffffffffffffffff82111715610f9357600080fd5b8060405250919050565b600067ffffffffffffffff821115610fb457600080fd5b601f19601f8301169050602081019050919050565b6000819050602082019050919050565b600081519050919050565b600081519050919050565b6000602082019050919050565b600082825260208201905092915050565b600082825260208201905092915050565b600081905092915050565b60006110348261103b565b9050919050565b600073ffffffffffffffffffffffffffffffffffffffff82169050919050565b6000819050919050565b82818337600083830152505050565b60005b83811015611092578082015181840152602081019050611077565b838111156110a1576000848401525b50505050565b6000601f19601f8301169050919050565b6110c18161105b565b81146110cc57600080fd5b5056fea365627a7a72315820eedf4149d095449afb269b9f82fc7b2c1ccc40ed5adcbbab92510daa65c7cc1c6c6578706572696d656e74616cf564736f6c63430005100040",
  "source": "// SPDX-License-Identifier: MIT\r\npragma solidity >=0.4.22 <0.8.0;\r\npragma experimental ABIEncoderV2;\r\n\r\ncontract Manufacturing {\r\n    \r\n    \r\n    mapping (string => uint256) public materials;\r\n    \r\n     struct Product {\r\n        string Name;\r\n        uint256 Quantity;\r\n    }\r\n    \r\n    struct Door{ \r\n        uint256 steel_panel; \r\n        uint256 rails; \r\n        uint256 sensor;\r\n    } \r\n\r\n    struct Frame{\r\n        uint256 steel_sheet; //10\r\n        uint256 pulley; //2\r\n        uint256 motor; //2\r\n        uint256 steelcable; //2\r\n    }\r\n    \r\n    struct Button{\r\n        uint256 ledlight;\r\n        uint256 button;\r\n    }\r\n    \r\n    struct Display{\r\n        uint256 screen;\r\n    }\r\n    \r\n    struct Battery{\r\n        uint256 controller;\r\n    }\r\n    \r\n    Product productStruct;\r\n    Product[] productList;    \r\n    address[1] public clients;\r\n\r\n    constructor() public {\r\n        \r\n        materials[\"steel_panel\"] = 36;\r\n        materials[\"rails\"] = 36;\r\n        materials[\"sensor\"] = 36;\r\n        materials[\"steel_sheet\"] = 40;\r\n        materials[\"pulley\"] = 16;\r\n        materials[\"motor\"] = 16;\r\n        materials[\"steelcable\"] = 16;\r\n        materials[\"ledlight\"] = 50;\r\n        materials[\"button\"] = 50;\r\n        materials[\"screen\"] = 16;\r\n        materials[\"controller\"] = 1;\r\n    }\r\n    \r\n    function doors() public returns (uint256 numDoors) {\r\n        Door memory door1 = Door(2, 2, 1);\r\n        numDoors = materials[\"steel_panel\"] /= door1.steel_panel;\r\n        productStruct.Name = \"Door\";\r\n        productStruct.Quantity = numDoors;\r\n        productList.push(productStruct);\r\n        return numDoors;\r\n    }\r\n\r\n    function frames() public returns (uint256 numFrames) {\r\n        Frame memory frame1 = Frame(10, 2, 2, 2);\r\n        numFrames = materials[\"steel_sheet\"] /= frame1.steel_sheet;\r\n        productStruct.Name = \"Frame\";\r\n        productStruct.Quantity = numFrames;\r\n        productList.push(productStruct);\r\n        return numFrames;\r\n    }\r\n\r\n    function buttons() public returns (uint256 numButtons) {\r\n        Button memory button1 = Button(1, 1);\r\n        numButtons = materials[\"button\"] /= button1.button;\r\n        productStruct.Name = \"Button\";\r\n        productStruct.Quantity = numButtons;\r\n        productList.push(productStruct);\r\n        return numButtons;\r\n    }\r\n\r\n\r\n    function display() public returns (uint256 numDisplay){\r\n        Display memory display1 = Display(1);\r\n        numDisplay = materials[\"screen\"] /= display1.screen;\r\n        productStruct.Name = \"Screen\";\r\n        productStruct.Quantity = numDisplay;\r\n        productList.push(productStruct);\r\n        return numDisplay;\r\n    }\r\n\r\n    \r\n\r\n    function batteries() public returns (uint256 numBattery){\r\n        Battery memory battery1 = Battery(1);\r\n        numBattery = materials[\"controller\"] /= battery1.controller;\r\n        productStruct.Name = \"Battery\";\r\n        productStruct.Quantity = numBattery;\r\n        productList.push(productStruct);\r\n        return numBattery;\r\n    }\r\n\r\n    // gets all the doors\r\n    function getDoors() public {\r\n        doors();\r\n    }\r\n\r\n    // gets all the frames\r\n    function getFrames() public{\r\n        frames();\r\n\r\n    }\r\n\r\n    // gets all the buttons\r\n    function getButtons() public{\r\n        buttons();\r\n\r\n    }\r\n\r\n    // gets all the displays\r\n    function getDisplay() public {\r\n        display();\r\n    }\r\n\r\n    //gets all the batteries controllers\r\n    function getBatteries() public {\r\n        batteries();\r\n    }\r\n\r\n\r\n\r\n    // gets all the roducts regardless of their type\r\n\r\n\r\n\r\n\r\n    function production() public view returns (Product[] memory) {\r\n        return productList;\r\n\r\n    }\r\n    function getProducts() public returns(Product[] memory){\r\n        doors();\r\n        frames();\r\n        buttons();\r\n        display();\r\n        batteries();\r\n    }\r\n}\r\n",
  "sourcePath": "C:/Users/User/testganache/Rocket_Elevators_Smart_Contracts/contracts/Manufacturing.sol",
  "compiler": {
    "name": "solc",
    "version": "0.5.16+commit.9c3226ce.Emscripten.clang"
  },
  "schemaVersion": "3.3.2",
  "updatedAt": "2020-12-09T22:03:33.993Z",
  "devdoc": {
    "methods": {}
  },
  "userdoc": {
    "methods": {}
  }
}