{
  "contractName": "Manufacturing",
  "abi": [
    {
      "constant": true,
      "inputs": [
        {
          "internalType": "uint256",
          "name": "",
          "type": "uint256"
        }
      ],
      "name": "client",
      "outputs": [
        {
          "internalType": "address",
          "name": "",
          "type": "address"
        }
      ],
      "payable": false,
      "stateMutability": "view",
      "type": "function"
    },
    {
      "constant": false,
      "inputs": [
        {
          "internalType": "uint256",
          "name": "steel_panel",
          "type": "uint256"
        },
        {
          "internalType": "uint256",
          "name": "rails",
          "type": "uint256"
        },
        {
          "internalType": "uint256",
          "name": "sensor",
          "type": "uint256"
        }
      ],
      "name": "assembleDoors",
      "outputs": [
        {
          "internalType": "uint256",
          "name": "",
          "type": "uint256"
        }
      ],
      "payable": false,
      "stateMutability": "nonpayable",
      "type": "function"
    },
    {
      "constant": true,
      "inputs": [],
      "name": "getClients",
      "outputs": [
        {
          "internalType": "address[1]",
          "name": "",
          "type": "address[1]"
        }
      ],
      "payable": false,
      "stateMutability": "view",
      "type": "function"
    }
  ],
  "bytecode": "0x608060405260246001556024600255600860035534801561001f57600080fd5b506102dc8061002f6000396000f3fe608060405234801561001057600080fd5b50600436106100415760003560e01c80636658ecc1146100465780636db809951461009c578063812e3219146100e2575b600080fd5b6100866004803603606081101561005c57600080fd5b81019080803590602001909291908035906020019092919080359060200190929190505050610150565b6040518082815260200191505060405180910390f35b6100a46101d1565b6040518082600160200280838360005b838110156100cf5780820151818401526020810190506100b4565b5050505090500191505060405180910390f35b61010e600480360360208110156100f857600080fd5b8101908080359060200190929190505050610252565b604051808273ffffffffffffffffffffffffffffffffffffffff1673ffffffffffffffffffffffffffffffffffffffff16815260200191505060405180910390f35b600060028410158015610164575060028310155b8015610171575060018210155b61017a57600080fd5b336000856001811061018857fe5b0160006101000a81548173ffffffffffffffffffffffffffffffffffffffff021916908373ffffffffffffffffffffffffffffffffffffffff1602179055508390509392505050565b6101d9610285565b6000600180602002604051908101604052809291908260018015610248576020028201915b8160009054906101000a900473ffffffffffffffffffffffffffffffffffffffff1673ffffffffffffffffffffffffffffffffffffffff16815260200190600101908083116101fe575b5050505050905090565b6000816001811061025f57fe5b016000915054906101000a900473ffffffffffffffffffffffffffffffffffffffff1681565b604051806020016040528060019060208202803883398082019150509050509056fea265627a7a723158207181e8fbe2c3d4f6922b91587e7075243ad954e63e04dab1eca4216940e6833164736f6c63430005100032",
  "source": "pragma solidity ^0.5.0;\n\ncontract Manufacturing {\n    \n    address[1] public client;\n    \n    // hardcoded item values \n    uint steel_panel = 36 ;\n    uint rails = 36 ;\n    uint sensor = 8 ;\n\n\n\n\n\n    // this is the basic requirements for a single elevator\n    struct doors{ \n        uint steel_panel; // 2 steel panels\n        uint rails; // 2 rails\n        uint sensor; // 1 sensor\n    } \n\n    struct frame{\n        uint steelsheet; // 10 steel sheets\n        uint pulley; // 2 pulleys\n        uint motor; // 2 motors\n        uint steelcable; // 2 steelcable\n    }\n\n    struct button{\n        uint ledlight; // 1 led light\n        uint button; // 1 button\n    }\n\n    struct display{\n        uint screen; // i lcd screen\n    }\n\n    struct battery{\n        uint controller; // 1 controller\n    }\n\n\n    // assembling the doors\n    function assembleDoors(uint steel_panel, uint rails, uint sensor) public returns (uint){\n\n        require (steel_panel >= 2 && rails >= 2 && sensor >= 1);\n\n        client[steel_panel] = msg.sender;\n\n\n        return steel_panel;\n\n    } \n\n       // Retrieving the clients\n    function getClients() public view returns (address[1] memory) {\n        return client;\n    }\n\n\n    // // Adopting a pet\n    // function adopt(uint petId) public returns (uint) {\n    //     require(petId >= 0 && petId <= 15);\n\n    //     adopters[petId] = msg.sender;\n\n    //     return petId;\n    // }\n\n    // // Retrieving the adopters\n    // function getAdopters() public view returns (address[16] memory) {\n    //     return adopters;\n    // }\n\n\n\n}",
  "sourcePath": "/home/mrcbilou/week12/contracts/Manufacturing.sol",
  "compiler": {
    "name": "solc",
    "version": "0.5.16+commit.9c3226ce.Emscripten.clang"
  },
  "schemaVersion": "3.3.2",
  "updatedAt": "2020-12-08T00:14:16.782Z",
  "networkType": "ethereum",
  "devdoc": {
    "methods": {}
  },
  "userdoc": {
    "methods": {}
  }
}