{
  "contractName": "Manufacturing",
  "abi": [
    {
      "constant": true,
      "inputs": [
        {
          "internalType": "uint256",
          "name": "",
          "type": "uint256"
        }
      ],
      "name": "clients",
      "outputs": [
        {
          "internalType": "address",
          "name": "",
          "type": "address"
        }
      ],
      "payable": false,
      "stateMutability": "view",
      "type": "function"
    },
    {
      "constant": true,
      "inputs": [
        {
          "internalType": "string",
          "name": "",
          "type": "string"
        }
      ],
      "name": "materials",
      "outputs": [
        {
          "internalType": "uint256",
          "name": "",
          "type": "uint256"
        }
      ],
      "payable": false,
      "stateMutability": "view",
      "type": "function"
    },
    {
      "constant": false,
      "inputs": [
        {
          "internalType": "uint256",
          "name": "steel_panel",
          "type": "uint256"
        },
        {
          "internalType": "uint256",
          "name": "rails",
          "type": "uint256"
        },
        {
          "internalType": "uint256",
          "name": "sensor",
          "type": "uint256"
        }
      ],
      "name": "doors",
      "outputs": [
        {
          "internalType": "uint256",
          "name": "numDoors",
          "type": "uint256"
        }
      ],
      "payable": false,
      "stateMutability": "nonpayable",
      "type": "function"
    },
    {
      "constant": false,
      "inputs": [
        {
          "internalType": "uint256",
          "name": "steel_sheet",
          "type": "uint256"
        },
        {
          "internalType": "uint256",
          "name": "pulley",
          "type": "uint256"
        },
        {
          "internalType": "uint256",
          "name": "motor",
          "type": "uint256"
        },
        {
          "internalType": "uint256",
          "name": "steelcable",
          "type": "uint256"
        }
      ],
      "name": "frames",
      "outputs": [
        {
          "internalType": "uint256",
          "name": "numFrames",
          "type": "uint256"
        }
      ],
      "payable": false,
      "stateMutability": "nonpayable",
      "type": "function"
    },
    {
      "constant": false,
      "inputs": [
        {
          "internalType": "uint256",
          "name": "ledlight",
          "type": "uint256"
        },
        {
          "internalType": "uint256",
          "name": "button",
          "type": "uint256"
        }
      ],
      "name": "buttons",
      "outputs": [
        {
          "internalType": "uint256",
          "name": "numButtons",
          "type": "uint256"
        }
      ],
      "payable": false,
      "stateMutability": "nonpayable",
      "type": "function"
    },
    {
      "constant": false,
      "inputs": [
        {
          "internalType": "uint256",
          "name": "screen",
          "type": "uint256"
        }
      ],
      "name": "display",
      "outputs": [
        {
          "internalType": "uint256",
          "name": "numDisplay",
          "type": "uint256"
        }
      ],
      "payable": false,
      "stateMutability": "nonpayable",
      "type": "function"
    },
    {
      "constant": false,
      "inputs": [
        {
          "internalType": "uint256",
          "name": "controller",
          "type": "uint256"
        }
      ],
      "name": "batteries",
      "outputs": [
        {
          "internalType": "uint256",
          "name": "numBattery",
          "type": "uint256"
        }
      ],
      "payable": false,
      "stateMutability": "nonpayable",
      "type": "function"
    },
    {
      "constant": false,
      "inputs": [],
      "name": "getDoors",
      "outputs": [],
      "payable": false,
      "stateMutability": "nonpayable",
      "type": "function"
    },
    {
      "constant": false,
      "inputs": [],
      "name": "getFrames",
      "outputs": [],
      "payable": false,
      "stateMutability": "nonpayable",
      "type": "function"
    },
    {
      "constant": false,
      "inputs": [],
      "name": "getButtons",
      "outputs": [],
      "payable": false,
      "stateMutability": "nonpayable",
      "type": "function"
    },
    {
      "constant": false,
      "inputs": [],
      "name": "getDisplay",
      "outputs": [],
      "payable": false,
      "stateMutability": "nonpayable",
      "type": "function"
    },
    {
      "constant": false,
      "inputs": [],
      "name": "getBatteries",
      "outputs": [],
      "payable": false,
      "stateMutability": "nonpayable",
      "type": "function"
    },
    {
      "constant": false,
      "inputs": [],
      "name": "getProducts",
      "outputs": [],
      "payable": false,
      "stateMutability": "nonpayable",
      "type": "function"
    },
    {
      "constant": true,
      "inputs": [],
      "name": "getClients",
      "outputs": [
        {
          "internalType": "address[16]",
          "name": "",
          "type": "address[16]"
        }
      ],
      "payable": false,
      "stateMutability": "view",
      "type": "function"
    },
    {
      "constant": true,
      "inputs": [],
      "name": "production",
      "outputs": [
        {
          "components": [
            {
              "internalType": "string",
              "name": "Name",
              "type": "string"
            },
            {
              "internalType": "uint256",
              "name": "Quantity",
              "type": "uint256"
            }
          ],
          "internalType": "struct Manufacturing.Product[]",
          "name": "",
          "type": "tuple[]"
        }
      ],
      "payable": false,
      "stateMutability": "view",
      "type": "function"
    }
  ],
  "bytecode": "0x608060405234801561001057600080fd5b5061112c806100206000396000f3fe608060405234801561001057600080fd5b50600436106100f55760003560e01c80636db8099511610097578063a807766611610066578063a80776661461024e578063c29b2f2014610258578063c2da244714610262578063f88af21d14610292576100f5565b80636db80995146101c65780637155f2c6146101e45780637ef914241461021457806391347df41461021e576100f5565b80631ca679c0116100d35780631ca679c0146101525780635f392c901461015c57806363050f8b1461018c578063681f11f014610196576100f5565b806302faac8a146100fa578063041ac0871461012a57806305e88b6914610134575b600080fd5b610114600480360361010f9190810190610c5c565b6102c2565b6040516101219190610f4d565b60405180910390f35b6101326103a5565b005b61013c6103b7565b6040516101499190610f2b565b60405180910390f35b61015a6104c2565b005b61017660048036036101719190810190610c33565b6104d2565b6040516101839190610f4d565b60405180910390f35b6101946105d5565b005b6101b060048036036101ab9190810190610ce7565b6105e2565b6040516101bd9190610f4d565b60405180910390f35b6101ce6106e1565b6040516101db9190610f0f565b60405180910390f35b6101fe60048036036101f99190810190610c98565b610762565b60405161020b9190610f4d565b60405180910390f35b61021c610853565b005b61023860048036036102339190810190610bf2565b610860565b6040516102459190610f4d565b60405180910390f35b61025661088e565b005b61026061089c565b005b61027c60048036036102779190810190610c33565b6108de565b6040516102899190610f4d565b60405180910390f35b6102ac60048036036102a79190810190610c33565b6109e1565b6040516102b99190610ef4565b60405180910390f35b6000600182101580156102d6575060018310155b6102df57600080fd5b6040518060400160405280600681526020017f427574746f6e00000000000000000000000000000000000000000000000000008152506010600001908051906020019061032d929190610a14565b508060106001018190555060126010908060018154018082558091505090600182039060005260206000209060020201600090919290919091506000820181600001908054600181600116156101000203166002900461038e929190610a94565b506001820154816001015550505080905092915050565b6103b4600a60028060026105e2565b50565b60606012805480602002602001604051908101604052809291908181526020016000905b828210156104b95783829060005260206000209060020201604051806040016040529081600082018054600181600116156101000203166002900480601f0160208091040260200160405190810160405280929190818152602001828054600181600116156101000203166002900480156104975780601f1061046c57610100808354040283529160200191610497565b820191906000526020600020905b81548152906001019060200180831161047a57829003601f168201915b50505050508152602001600182015481525050815260200190600101906103db565b50505050905090565b6104cf6002806001610762565b50565b60006104dc610b1b565b60405180602001604052806001815250905060018310156104fc57600080fd5b8060000151838161050957fe5b0492508291506040518060400160405280600781526020017f42617474657279000000000000000000000000000000000000000000000000008152506010600001908051906020019061055d929190610a14565b50816010600101819055506012601090806001815401808255809150509060018203906000526020600020906002020160009091929091909150600082018160000190805460018160011615610100020316600290046105be929190610a94565b506001820154816001015550505081915050919050565b6105df60016104d2565b50565b6000600a85101580156105f6575060028410155b8015610603575060028310155b8015610610575060028210155b61061957600080fd5b6040518060400160405280600581526020017f4672616d6500000000000000000000000000000000000000000000000000000081525060106000019080519060200190610667929190610a14565b50806010600101819055506012601090806001815401808255809150509060018203906000526020600020906002020160009091929091909150600082018160000190805460018160011615610100020316600290046106c8929190610a94565b5060018201548160010155505050809050949350505050565b6106e9610b2e565b6000601080602002604051908101604052809291908260108015610758576020028201915b8160009054906101000a900473ffffffffffffffffffffffffffffffffffffffff1673ffffffffffffffffffffffffffffffffffffffff168152602001906001019080831161070e575b5050505050905090565b600060028410158015610776575060028310155b8015610783575060018210155b61078c57600080fd5b6040518060400160405280600481526020017f446f6f7200000000000000000000000000000000000000000000000000000000815250601060000190805190602001906107da929190610a14565b508060106001018190555060126010908060018154018082558091505090600182039060005260206000209060020201600090919290919091506000820181600001908054600181600116156101000203166002900461083b929190610a94565b50600182015481600101555050508090509392505050565b61085d60016108de565b50565b6013818051602081018201805184825260208301602085012081835280955050505050506000915090505481565b6108996001806102c2565b50565b6108a96002806001610762565b506108b9600a60028060026105e2565b506108c56001806102c2565b506108d060016108de565b506108db60016104d2565b50565b60006108e8610b51565b604051806020016040528060018152509050600183101561090857600080fd5b8060000151838161091557fe5b0492508291506040518060400160405280600681526020017f53637265656e000000000000000000000000000000000000000000000000000081525060106000019080519060200190610969929190610a14565b50816010600101819055506012601090806001815401808255809150509060018203906000526020600020906002020160009091929091909150600082018160000190805460018160011615610100020316600290046109ca929190610a94565b506001820154816001015550505081915050919050565b600081601081106109ee57fe5b016000915054906101000a900473ffffffffffffffffffffffffffffffffffffffff1681565b828054600181600116156101000203166002900490600052602060002090601f016020900481019282601f10610a5557805160ff1916838001178555610a83565b82800160010185558215610a83579182015b82811115610a82578251825591602001919060010190610a67565b5b509050610a909190610b64565b5090565b828054600181600116156101000203166002900490600052602060002090601f016020900481019282601f10610acd5780548555610b0a565b82800160010185558215610b0a57600052602060002091601f016020900482015b82811115610b09578254825591600101919060010190610aee565b5b509050610b179190610b64565b5090565b6040518060200160405280600081525090565b604051806102000160405280601090602082028038833980820191505090505090565b6040518060200160405280600081525090565b610b8691905b80821115610b82576000816000905550600101610b6a565b5090565b90565b600082601f830112610b9a57600080fd5b8135610bad610ba882610f95565b610f68565b91508082526020830160208301858383011115610bc957600080fd5b610bd483828461107f565b50505092915050565b600081359050610bec816110d2565b92915050565b600060208284031215610c0457600080fd5b600082013567ffffffffffffffff811115610c1e57600080fd5b610c2a84828501610b89565b91505092915050565b600060208284031215610c4557600080fd5b6000610c5384828501610bdd565b91505092915050565b60008060408385031215610c6f57600080fd5b6000610c7d85828601610bdd565b9250506020610c8e85828601610bdd565b9150509250929050565b600080600060608486031215610cad57600080fd5b6000610cbb86828701610bdd565b9350506020610ccc86828701610bdd565b9250506040610cdd86828701610bdd565b9150509250925092565b60008060008060808587031215610cfd57600080fd5b6000610d0b87828801610bdd565b9450506020610d1c87828801610bdd565b9350506040610d2d87828801610bdd565b9250506060610d3e87828801610bdd565b91505092959194509250565b6000610d568383610d76565b60208301905092915050565b6000610d6e8383610e99565b905092915050565b610d7f81611043565b82525050565b610d8e81611043565b82525050565b610d9d81610fdb565b610da78184611016565b9250610db282610fc1565b8060005b83811015610de3578151610dca8782610d4a565b9650610dd583610ffc565b925050600181019050610db6565b505050505050565b6000610df682610fe6565b610e008185611021565b935083602082028501610e1285610fcb565b8060005b85811015610e4e5784840389528151610e2f8582610d62565b9450610e3a83611009565b925060208a01995050600181019050610e16565b50829750879550505050505092915050565b6000610e6b82610ff1565b610e758185611032565b9350610e8581856020860161108e565b610e8e816110c1565b840191505092915050565b60006040830160008301518482036000860152610eb68282610e60565b9150506020830151610ecb6020860182610ed6565b508091505092915050565b610edf81611075565b82525050565b610eee81611075565b82525050565b6000602082019050610f096000830184610d85565b92915050565b600061020082019050610f256000830184610d94565b92915050565b60006020820190508181036000830152610f458184610deb565b905092915050565b6000602082019050610f626000830184610ee5565b92915050565b6000604051905081810181811067ffffffffffffffff82111715610f8b57600080fd5b8060405250919050565b600067ffffffffffffffff821115610fac57600080fd5b601f19601f8301169050602081019050919050565b6000819050919050565b6000819050602082019050919050565b600060109050919050565b600081519050919050565b600081519050919050565b6000602082019050919050565b6000602082019050919050565b600081905092915050565b600082825260208201905092915050565b600082825260208201905092915050565b600061104e82611055565b9050919050565b600073ffffffffffffffffffffffffffffffffffffffff82169050919050565b6000819050919050565b82818337600083830152505050565b60005b838110156110ac578082015181840152602081019050611091565b838111156110bb576000848401525b50505050565b6000601f19601f8301169050919050565b6110db81611075565b81146110e657600080fd5b5056fea365627a7a72315820195f5ae167bc32b16c7355920263a0998ff16177849251b71342f5f9e5c9727f6c6578706572696d656e74616cf564736f6c63430005100040",
  "source": "// SPDX-License-Identifier: MIT\r\npragma solidity >=0.4.22 <0.8.0;\r\npragma experimental ABIEncoderV2;\r\ncontract Manufacturing {\r\n    address[16] public clients;\r\n    struct Product {\r\n        string Name;\r\n        uint256 Quantity;\r\n    }\r\n    struct Door{\r\n        uint256 steel_panel;\r\n        uint256 rails;\r\n        uint256 sensor;\r\n    }\r\n    struct Frame{\r\n        uint256 steel_sheet; //10\r\n        uint256 pulley; //2\r\n        uint256 motor; //2\r\n        uint256 steelcable; //2\r\n    }\r\n    struct Button{\r\n        uint256 ledlight; //1\r\n        uint256 button; //1\r\n    }\r\n    struct Display{\r\n        uint256 screen; //1\r\n    }\r\n    struct Battery{\r\n        uint256 controller; //1\r\n    }\r\n    Product productStruct;\r\n    Product[] productList;\r\n    mapping (string => uint256) public materials;\r\n//    function getMaterials(uint256 _steel_panel, uint256 _rails, uint256 _sensor, uint256 _steel_sheet, uint256 _pulley, uint256 _motor, uint256 _steelcable, uint256 _ledcable, uint256 _ledlight, uint256 _button, uint256 _screen, uint256 _controller) public returns (materials[]){\r\n//         this.steel_panel = _steel_panel;\r\n//         materials.push (_steel_pannel);\r\n//         this.rails = _rails;\r\n//         materials.pus(_rails);\r\n//         this.sensor = _sensor;\r\n//         materials.push (_sensor);\r\n//         this.steel_sheet = _steel_sheet;\r\n//         materials.push(_steel_sheet);\r\n//         this.pulley = _pulley;\r\n//         materials.push(_pulley);\r\n//         this.motor = _motor;\r\n//         materials.push(_motor);\r\n//         this.steelcable = _steelcable;\r\n//         materials.push(_steelcable);\r\n//         this.ledlight = _ledlight;\r\n//         materials.push(_ledlight);\r\n//         this.button = _button;\r\n//         materials.push(_button);\r\n//         this.screen = _screen;\r\n//         materials.push(_screen);\r\n//         this.controller = _controller;\r\n//         materials.push(_controller);\r\n//         return materials;\r\n//     }\r\n        // function callgetMaterials() public {\r\n        //     getMaterials(36,36,8,20,16,16,16,16,50,50,8,1);\r\n        // }\r\n    // constructor() public {\r\n    //     materials[\"steel_panel\"] = 36;\r\n    //     materials[\"rails\"] = 36;\r\n    //     materials[\"sensor\"] = 8;\r\n    //     materials[\"steel_sheet\"] = 20;\r\n    //     materials[\"pulley\"] = 16;\r\n    //     materials[\"motor\"] = 16;\r\n    //     materials[\"steelcable\"] = 16;\r\n    //     materials[\"ledlight\"] = 50;\r\n    //     materials[\"button\"] = 50;\r\n    //     materials[\"screen\"] = 8;\r\n    //     materials[\"controller\"] = 1;\r\n    // }\r\n    function doors( uint256 steel_panel, uint256 rails, uint256 sensor  ) public returns (uint256 numDoors) {\r\n        require (steel_panel >= 2 && rails >=2 &&  sensor  >=1 );\r\n        productStruct.Name = \"Door\";\r\n        productStruct.Quantity = numDoors;\r\n        productList.push(productStruct);\r\n        return numDoors;\r\n    }\r\n    function frames(uint256 steel_sheet, uint256 pulley, uint256 motor, uint256 steelcable ) public returns (uint256 numFrames) {\r\n        require (steel_sheet >= 10 && pulley >= 2 && motor >= 2 && steelcable >= 2);\r\n        productStruct.Name = \"Frame\";\r\n        productStruct.Quantity = numFrames;\r\n        productList.push(productStruct);\r\n        return numFrames;\r\n    }\r\n    function buttons(uint256 ledlight, uint256 button) public returns (uint256 numButtons) {\r\n        require (button >= 1 && ledlight >=1);\r\n        productStruct.Name = \"Button\";\r\n        productStruct.Quantity = numButtons;\r\n        productList.push(productStruct);\r\n        return numButtons;\r\n    }\r\n    function display(uint256 screen) public returns (uint256 numDisplay){\r\n        Display memory display1 = Display(1);\r\n        require (screen >= 1);\r\n        numDisplay = screen /= display1.screen;\r\n        productStruct.Name = \"Screen\";\r\n        productStruct.Quantity = numDisplay;\r\n        productList.push(productStruct);\r\n        return numDisplay;\r\n    }\r\n    function batteries(uint256 controller) public returns (uint256 numBattery){\r\n        Battery memory battery1 = Battery(1);\r\n        require (controller >= 1);\r\n        numBattery = controller /= battery1.controller;\r\n        productStruct.Name = \"Battery\";\r\n        productStruct.Quantity = numBattery;\r\n        productList.push(productStruct);\r\n        return numBattery;\r\n    }\r\n    // gets all the doors\r\n    function getDoors() public {\r\n        doors(2,2,1);\r\n    }\r\n    // gets all the frames\r\n    function getFrames() public{\r\n        frames(10,2,2,2);\r\n    }\r\n    // gets all the buttons\r\n    function getButtons() public{\r\n        buttons(1,1);\r\n    }\r\n    // gets all the displays\r\n    function getDisplay() public {\r\n        display(1);\r\n    }\r\n    //gets all the batteries controllers\r\n    function getBatteries() public {\r\n        batteries(1);\r\n    }\r\n    // gets all the roducts regardless of their type\r\n    function getProducts() public {\r\n        doors(2,2,1);\r\n        frames(10,2,2,2);\r\n        buttons(1,1);\r\n        display(1);\r\n        batteries(1);\r\n    }\r\n    function getClients() public view returns (address[16] memory) {\r\n        return clients;\r\n    }\r\n    function production() public view returns (Product[] memory) {\r\n        return productList;\r\n    }\r\n}",
  "sourcePath": "C:/Users/Jorge/Desktop/ContractWindows/Rocket_Elevators_Smart_Contracts-1/contracts/Manufacturing.sol",
  "compiler": {
    "name": "solc",
    "version": "0.5.16+commit.9c3226ce.Emscripten.clang"
  },
  "schemaVersion": "3.3.2",
  "updatedAt": "2020-12-09T16:28:52.317Z",
  "networkType": "ethereum",
  "devdoc": {
    "methods": {}
  },
  "userdoc": {
    "methods": {}
  }
}