{
  "contractName": "Manufacturing",
  "abi": [
    {
      "inputs": [],
      "payable": false,
      "stateMutability": "nonpayable",
      "type": "constructor"
    },
    {
      "constant": true,
      "inputs": [
        {
          "internalType": "string",
          "name": "",
          "type": "string"
        }
      ],
      "name": "materials",
      "outputs": [
        {
          "internalType": "uint256",
          "name": "",
          "type": "uint256"
        }
      ],
      "payable": false,
      "stateMutability": "view",
      "type": "function"
    },
    {
      "constant": false,
      "inputs": [],
      "name": "doors",
      "outputs": [
        {
          "internalType": "uint256",
          "name": "numDoors",
          "type": "uint256"
        }
      ],
      "payable": false,
      "stateMutability": "nonpayable",
      "type": "function"
    },
    {
      "constant": false,
      "inputs": [],
      "name": "frames",
      "outputs": [
        {
          "internalType": "uint256",
          "name": "numFrames",
          "type": "uint256"
        }
      ],
      "payable": false,
      "stateMutability": "nonpayable",
      "type": "function"
    },
    {
      "constant": false,
      "inputs": [],
      "name": "buttons",
      "outputs": [
        {
          "internalType": "uint256",
          "name": "numButtons",
          "type": "uint256"
        }
      ],
      "payable": false,
      "stateMutability": "nonpayable",
      "type": "function"
    },
    {
      "constant": false,
      "inputs": [],
      "name": "display",
      "outputs": [
        {
          "internalType": "uint256",
          "name": "numDisplay",
          "type": "uint256"
        }
      ],
      "payable": false,
      "stateMutability": "nonpayable",
      "type": "function"
    },
    {
      "constant": false,
      "inputs": [],
      "name": "batteries",
      "outputs": [
        {
          "internalType": "uint256",
          "name": "numBattery",
          "type": "uint256"
        }
      ],
      "payable": false,
      "stateMutability": "nonpayable",
      "type": "function"
    },
    {
      "constant": false,
      "inputs": [],
      "name": "getDoors",
      "outputs": [],
      "payable": false,
      "stateMutability": "nonpayable",
      "type": "function"
    },
    {
      "constant": false,
      "inputs": [],
      "name": "getFrames",
      "outputs": [],
      "payable": false,
      "stateMutability": "nonpayable",
      "type": "function"
    },
    {
      "constant": false,
      "inputs": [],
      "name": "getButtons",
      "outputs": [],
      "payable": false,
      "stateMutability": "nonpayable",
      "type": "function"
    },
    {
      "constant": false,
      "inputs": [],
      "name": "getDisplay",
      "outputs": [],
      "payable": false,
      "stateMutability": "nonpayable",
      "type": "function"
    },
    {
      "constant": false,
      "inputs": [],
      "name": "getBatteries",
      "outputs": [],
      "payable": false,
      "stateMutability": "nonpayable",
      "type": "function"
    },
    {
      "constant": false,
      "inputs": [],
      "name": "getProducts",
      "outputs": [
        {
          "components": [
            {
              "internalType": "string",
              "name": "Name",
              "type": "string"
            },
            {
              "internalType": "uint256",
              "name": "Quantity",
              "type": "uint256"
            }
          ],
          "internalType": "struct Manufacturing.Product[]",
          "name": "",
          "type": "tuple[]"
        }
      ],
      "payable": false,
      "stateMutability": "nonpayable",
      "type": "function"
    }
  ],
  "bytecode": "0x60806040523480156200001157600080fd5b50602460006040516200002490620004bf565b9081526020016040518091039020819055506024600060405162000048906200047a565b908152602001604051809103902081905550601260006040516200006c90620004d6565b908152602001604051809103902081905550602860006040516200009090620004a8565b90815260200160405180910390208190555060106000604051620000b49062000491565b90815260200160405180910390208190555060106000604051620000d8906200051b565b90815260200160405180910390208190555060106000604051620000fc9062000504565b90815260200160405180910390208190555060326000604051620001209062000532565b90815260200160405180910390208190555060326000604051620001449062000560565b90815260200160405180910390208190555060106000604051620001689062000549565b908152602001604051809103902081905550600160006040516200018c90620004ed565b90815260200160405180910390208190555062000582565b6000620001b360058362000577565b91507f7261696c730000000000000000000000000000000000000000000000000000006000830152600582019050919050565b6000620001f560068362000577565b91507f70756c6c657900000000000000000000000000000000000000000000000000006000830152600682019050919050565b600062000237600b8362000577565b91507f737465656c5f73686565740000000000000000000000000000000000000000006000830152600b82019050919050565b600062000279600b8362000577565b91507f737465656c5f70616e656c0000000000000000000000000000000000000000006000830152600b82019050919050565b6000620002bb60068362000577565b91507f73656e736f7200000000000000000000000000000000000000000000000000006000830152600682019050919050565b6000620002fd600a8362000577565b91507f636f6e74726f6c6c6572000000000000000000000000000000000000000000006000830152600a82019050919050565b60006200033f600a8362000577565b91507f737465656c6361626c65000000000000000000000000000000000000000000006000830152600a82019050919050565b60006200038160058362000577565b91507f6d6f746f720000000000000000000000000000000000000000000000000000006000830152600582019050919050565b6000620003c360088362000577565b91507f6c65646c696768740000000000000000000000000000000000000000000000006000830152600882019050919050565b60006200040560068362000577565b91507f73637265656e00000000000000000000000000000000000000000000000000006000830152600682019050919050565b60006200044760068362000577565b91507f627574746f6e00000000000000000000000000000000000000000000000000006000830152600682019050919050565b60006200048782620001a4565b9150819050919050565b60006200049e82620001e6565b9150819050919050565b6000620004b58262000228565b9150819050919050565b6000620004cc826200026a565b9150819050919050565b6000620004e382620002ac565b9150819050919050565b6000620004fa82620002ee565b9150819050919050565b6000620005118262000330565b9150819050919050565b6000620005288262000372565b9150819050919050565b60006200053f82620003b4565b9150819050919050565b60006200055682620003f6565b9150819050919050565b60006200056d8262000438565b9150819050919050565b600081905092915050565b610f5080620005926000396000f3fe608060405234801561001057600080fd5b50600436106100b45760003560e01c806363050f8b1161007157806363050f8b14610145578063752f00a61461014f5780637ef914241461016d57806391347df414610177578063a8077666146101a7578063c29b2f20146101b1576100b4565b8063041ac087146100b95780630c1b7c1e146100c35780631ca679c0146100e157806335991911146100eb57806351e971031461010957806357f103e514610127575b600080fd5b6100c16101cf565b005b6100cb6101da565b6040516100d89190610ddc565b60405180910390f35b6100e96102ef565b005b6100f36102fa565b6040516101009190610ddc565b60405180910390f35b61011161041d565b60405161011e9190610ddc565b60405180910390f35b61012f610532565b60405161013c9190610ddc565b60405180910390f35b61014d61065c565b005b610157610667565b6040516101649190610ddc565b60405180910390f35b610175610783565b005b610191600480360361018c9190810190610ab3565b61078e565b60405161019e9190610ddc565b60405180910390f35b6101af6107bc565b005b6101b96107c7565b6040516101c69190610dba565b60405180910390f35b6101d7610532565b50565b60006101e4610807565b6040518060200160405280600181525090508060000151600060405161020990610d90565b908152602001604051809103902060008282548161022357fe5b0492505081905591506040518060400160405280600681526020017f53637265656e00000000000000000000000000000000000000000000000000008152506001600001908051906020019061027a92919061081a565b508160018001819055506003600190806001815401808255809150509060018203906000526020600020906002020160009091929091909150600082018160000190805460018160011615610100020316600290046102da92919061089a565b50600182015481600101555050508191505090565b6102f76102fa565b50565b6000610304610921565b60405180606001604052806002815260200160028152602001600181525090508060000151600060405161033790610d66565b908152602001604051809103902060008282548161035157fe5b0492505081905591506040518060400160405280600481526020017f446f6f7200000000000000000000000000000000000000000000000000000000815250600160000190805190602001906103a892919061081a565b5081600180018190555060036001908060018154018082558091505090600182039060005260206000209060020201600090919290919091506000820181600001908054600181600116156101000203166002900461040892919061089a565b50600182015481600101555050508191505090565b6000610427610942565b6040518060200160405280600181525090508060000151600060405161044c90610d7b565b908152602001604051809103902060008282548161046657fe5b0492505081905591506040518060400160405280600781526020017f4261747465727900000000000000000000000000000000000000000000000000815250600160000190805190602001906104bd92919061081a565b5081600180018190555060036001908060018154018082558091505090600182039060005260206000209060020201600090919290919091506000820181600001908054600181600116156101000203166002900461051d92919061089a565b50600182015481600101555050508191505090565b600061053c610955565b6040518060800160405280600a81526020016002815260200160028152602001600281525090508060000151600060405161057690610d51565b908152602001604051809103902060008282548161059057fe5b0492505081905591506040518060400160405280600581526020017f4672616d65000000000000000000000000000000000000000000000000000000815250600160000190805190602001906105e792919061081a565b5081600180018190555060036001908060018154018082558091505090600182039060005260206000209060020201600090919290919091506000820181600001908054600181600116156101000203166002900461064792919061089a565b50600182015481600101555050508191505090565b61066461041d565b50565b600061067161097d565b604051806040016040528060018152602001600181525090508060200151600060405161069d90610da5565b90815260200160405180910390206000828254816106b757fe5b0492505081905591506040518060400160405280600681526020017f427574746f6e00000000000000000000000000000000000000000000000000008152506001600001908051906020019061070e92919061081a565b5081600180018190555060036001908060018154018082558091505090600182039060005260206000209060020201600090919290919091506000820181600001908054600181600116156101000203166002900461076e92919061089a565b50600182015481600101555050508191505090565b61078b6101da565b50565b6000818051602081018201805184825260208301602085012081835280955050505050506000915090505481565b6107c4610667565b50565b6060600360006107d79190610997565b6107df6102fa565b506107e8610532565b506107f1610667565b506107fa6101da565b5061080361041d565b5090565b6040518060200160405280600081525090565b828054600181600116156101000203166002900490600052602060002090601f016020900481019282601f1061085b57805160ff1916838001178555610889565b82800160010185558215610889579182015b8281111561088857825182559160200191906001019061086d565b5b50905061089691906109bb565b5090565b828054600181600116156101000203166002900490600052602060002090601f016020900481019282601f106108d35780548555610910565b8280016001018555821561091057600052602060002091601f016020900482015b8281111561090f5782548255916001019190600101906108f4565b5b50905061091d91906109bb565b5090565b60405180606001604052806000815260200160008152602001600081525090565b6040518060200160405280600081525090565b6040518060800160405280600081526020016000815260200160008152602001600081525090565b604051806040016040528060008152602001600081525090565b50805460008255600202906000526020600020908101906109b891906109e0565b50565b6109dd91905b808211156109d95760008160009055506001016109c1565b5090565b90565b610a1491905b80821115610a1057600080820160006109ff9190610a17565b6001820160009055506002016109e6565b5090565b90565b50805460018160011615610100020316600290046000825580601f10610a3d5750610a5c565b601f016020900490600052602060002090810190610a5b91906109bb565b5b50565b600082601f830112610a7057600080fd5b8135610a83610a7e82610e24565b610df7565b91508082526020830160208301858383011115610a9f57600080fd5b610aaa838284610eba565b50505092915050565b600060208284031215610ac557600080fd5b600082013567ffffffffffffffff811115610adf57600080fd5b610aeb84828501610a5f565b91505092915050565b6000610b008383610cf6565b905092915050565b6000610b1382610e60565b610b1d8185610e83565b935083602082028501610b2f85610e50565b8060005b85811015610b6b5784840389528151610b4c8582610af4565b9450610b5783610e76565b925060208a01995050600181019050610b33565b50829750879550505050505092915050565b6000610b8882610e6b565b610b928185610e94565b9350610ba2818560208601610ec9565b610bab81610efc565b840191505092915050565b6000610bc3600b83610ea5565b91507f737465656c5f73686565740000000000000000000000000000000000000000006000830152600b82019050919050565b6000610c03600b83610ea5565b91507f737465656c5f70616e656c0000000000000000000000000000000000000000006000830152600b82019050919050565b6000610c43600a83610ea5565b91507f636f6e74726f6c6c6572000000000000000000000000000000000000000000006000830152600a82019050919050565b6000610c83600683610ea5565b91507f73637265656e00000000000000000000000000000000000000000000000000006000830152600682019050919050565b6000610cc3600683610ea5565b91507f627574746f6e00000000000000000000000000000000000000000000000000006000830152600682019050919050565b60006040830160008301518482036000860152610d138282610b7d565b9150506020830151610d286020860182610d33565b508091505092915050565b610d3c81610eb0565b82525050565b610d4b81610eb0565b82525050565b6000610d5c82610bb6565b9150819050919050565b6000610d7182610bf6565b9150819050919050565b6000610d8682610c36565b9150819050919050565b6000610d9b82610c76565b9150819050919050565b6000610db082610cb6565b9150819050919050565b60006020820190508181036000830152610dd48184610b08565b905092915050565b6000602082019050610df16000830184610d42565b92915050565b6000604051905081810181811067ffffffffffffffff82111715610e1a57600080fd5b8060405250919050565b600067ffffffffffffffff821115610e3b57600080fd5b601f19601f8301169050602081019050919050565b6000819050602082019050919050565b600081519050919050565b600081519050919050565b6000602082019050919050565b600082825260208201905092915050565b600082825260208201905092915050565b600081905092915050565b6000819050919050565b82818337600083830152505050565b60005b83811015610ee7578082015181840152602081019050610ecc565b83811115610ef6576000848401525b50505050565b6000601f19601f830116905091905056fea365627a7a723158203c2f2651faa29301a781e1adc990aa00da01ed8ef329e3c2ae1ebc694361a6486c6578706572696d656e74616cf564736f6c63430005100040",
  "source": "// SPDX-License-Identifier: MIT\r\npragma solidity >=0.4.22 <0.8.0;\r\npragma experimental ABIEncoderV2;\r\n\r\ncontract Manufacturing {\r\n    \r\n    \r\n    mapping (string => uint256) public materials;\r\n    \r\n     struct Product {\r\n        string Name;\r\n        uint256 Quantity;\r\n    }\r\n    \r\n    struct Door{ \r\n        uint256 steel_panel; \r\n        uint256 rails; \r\n        uint256 sensor;\r\n    } \r\n\r\n    struct Frame{\r\n        uint256 steel_sheet; //10\r\n        uint256 pulley; //2\r\n        uint256 motor; //2\r\n        uint256 steelcable; //2\r\n    }\r\n    \r\n    struct Button{\r\n        uint256 ledlight;\r\n        uint256 button;\r\n    }\r\n    \r\n    struct Display{\r\n        uint256 screen;\r\n    }\r\n    \r\n    struct Battery{\r\n        uint256 controller;\r\n    }\r\n    \r\n    Product productStruct;\r\n    Product[] productList;    \r\n\r\n    constructor() public {\r\n        //doors\r\n        materials[\"steel_panel\"] = 36; //2 per doors\r\n        materials[\"rails\"] = 36; //2 per doors\r\n        materials[\"sensor\"] = 18; //1 per doors\r\n        //frames\r\n        materials[\"steel_sheet\"] = 40; //10 per frame\r\n        materials[\"pulley\"] = 16; //2 per frame\r\n        materials[\"motor\"] = 16; //2 per frame \r\n        materials[\"steelcable\"] = 16; //2 per frame\r\n        //buttons\r\n        materials[\"ledlight\"] = 50; //1 per button\r\n        materials[\"button\"] = 50; //1 per button \r\n        //display\r\n        materials[\"screen\"] = 16; //1 per display\r\n        //battery\r\n        materials[\"controller\"] = 1; //1 per battery\r\n    }\r\n    \r\n    function doors() public returns (uint256 numDoors) {\r\n        Door memory door1 = Door(2, 2, 1);\r\n        numDoors = materials[\"steel_panel\"] /= door1.steel_panel;\r\n        productStruct.Name = \"Door\";\r\n        productStruct.Quantity = numDoors;\r\n        productList.push(productStruct);\r\n        return numDoors;\r\n    }\r\n\r\n    function frames() public returns (uint256 numFrames) {\r\n        Frame memory frame1 = Frame(10, 2, 2, 2);\r\n        numFrames = materials[\"steel_sheet\"] /= frame1.steel_sheet;\r\n        productStruct.Name = \"Frame\";\r\n        productStruct.Quantity = numFrames;\r\n        productList.push(productStruct);\r\n        return numFrames;\r\n    }\r\n\r\n    function buttons() public returns (uint256 numButtons) {\r\n        Button memory button1 = Button(1, 1);\r\n        numButtons = materials[\"button\"] /= button1.button;\r\n        productStruct.Name = \"Button\";\r\n        productStruct.Quantity = numButtons;\r\n        productList.push(productStruct);\r\n        return numButtons;\r\n    }\r\n\r\n\r\n    function display() public returns (uint256 numDisplay){\r\n        Display memory display1 = Display(1);\r\n        numDisplay = materials[\"screen\"] /= display1.screen;\r\n        productStruct.Name = \"Screen\";\r\n        productStruct.Quantity = numDisplay;\r\n        productList.push(productStruct);\r\n        return numDisplay;\r\n    }\r\n\r\n    \r\n\r\n    function batteries() public returns (uint256 numBattery){\r\n        Battery memory battery1 = Battery(1);\r\n        numBattery = materials[\"controller\"] /= battery1.controller;\r\n        productStruct.Name = \"Battery\";\r\n        productStruct.Quantity = numBattery;\r\n        productList.push(productStruct);\r\n        return numBattery;\r\n    }\r\n\r\n    // gets all the doors\r\n    function getDoors() public {\r\n        doors();\r\n    }\r\n\r\n    // gets all the frames\r\n    function getFrames() public{\r\n        frames();\r\n\r\n    }\r\n\r\n    // gets all the buttons\r\n    function getButtons() public{\r\n        buttons();\r\n\r\n    }\r\n\r\n    // gets all the displays\r\n    function getDisplay() public {\r\n        display();\r\n    }\r\n\r\n    //gets all the batteries controllers\r\n    function getBatteries() public {\r\n        batteries();\r\n    }\r\n\r\n\r\n    // gets all the roducts regardless of their type\r\n\r\n\r\n    function getProducts() public returns(Product[] memory){\r\n        delete productList;\r\n        doors();\r\n        frames();\r\n        buttons();\r\n        display();\r\n        batteries();\r\n    }\r\n}\r\n",
  "sourcePath": "C:/Users/User/vendredi1/Rocket_Elevators_Smart_Contracts/contracts/Manufacturing.sol",
  "compiler": {
    "name": "solc",
    "version": "0.5.16+commit.9c3226ce.Emscripten.clang"
  },
  "schemaVersion": "3.3.2",
  "updatedAt": "2020-12-11T20:45:00.009Z",
  "networkType": "ethereum",
  "devdoc": {
    "methods": {}
  },
  "userdoc": {
    "methods": {}
  }
}