{
  "contractName": "Manufacturing",
  "abi": [
    {
      "constant": true,
      "inputs": [
        {
          "internalType": "uint256",
          "name": "",
          "type": "uint256"
        }
      ],
      "name": "clients",
      "outputs": [
        {
          "internalType": "address",
          "name": "",
          "type": "address"
        }
      ],
      "payable": false,
      "stateMutability": "view",
      "type": "function"
    },
    {
      "constant": true,
      "inputs": [
        {
          "internalType": "string",
          "name": "",
          "type": "string"
        }
      ],
      "name": "materials",
      "outputs": [
        {
          "internalType": "uint256",
          "name": "",
          "type": "uint256"
        }
      ],
      "payable": false,
      "stateMutability": "view",
      "type": "function"
    },
    {
      "constant": false,
      "inputs": [
        {
          "internalType": "uint256",
          "name": "steel_panel",
          "type": "uint256"
        },
        {
          "internalType": "uint256",
          "name": "rails",
          "type": "uint256"
        },
        {
          "internalType": "uint256",
          "name": "sensor",
          "type": "uint256"
        }
      ],
      "name": "doors",
      "outputs": [
        {
          "internalType": "uint256",
          "name": "numDoors",
          "type": "uint256"
        }
      ],
      "payable": false,
      "stateMutability": "nonpayable",
      "type": "function"
    },
    {
      "constant": false,
      "inputs": [],
      "name": "frames",
      "outputs": [
        {
          "internalType": "uint256",
          "name": "numFrames",
          "type": "uint256"
        }
      ],
      "payable": false,
      "stateMutability": "nonpayable",
      "type": "function"
    },
    {
      "constant": false,
      "inputs": [],
      "name": "buttons",
      "outputs": [
        {
          "internalType": "uint256",
          "name": "numButtons",
          "type": "uint256"
        }
      ],
      "payable": false,
      "stateMutability": "nonpayable",
      "type": "function"
    },
    {
      "constant": false,
      "inputs": [],
      "name": "display",
      "outputs": [
        {
          "internalType": "uint256",
          "name": "numDisplay",
          "type": "uint256"
        }
      ],
      "payable": false,
      "stateMutability": "nonpayable",
      "type": "function"
    },
    {
      "constant": false,
      "inputs": [],
      "name": "batteries",
      "outputs": [
        {
          "internalType": "uint256",
          "name": "numBattery",
          "type": "uint256"
        }
      ],
      "payable": false,
      "stateMutability": "nonpayable",
      "type": "function"
    },
    {
      "constant": false,
      "inputs": [],
      "name": "getDoors",
      "outputs": [],
      "payable": false,
      "stateMutability": "nonpayable",
      "type": "function"
    },
    {
      "constant": false,
      "inputs": [],
      "name": "getFrames",
      "outputs": [],
      "payable": false,
      "stateMutability": "nonpayable",
      "type": "function"
    },
    {
      "constant": false,
      "inputs": [],
      "name": "getButtons",
      "outputs": [],
      "payable": false,
      "stateMutability": "nonpayable",
      "type": "function"
    },
    {
      "constant": false,
      "inputs": [],
      "name": "getDisplay",
      "outputs": [],
      "payable": false,
      "stateMutability": "nonpayable",
      "type": "function"
    },
    {
      "constant": false,
      "inputs": [],
      "name": "getBatteries",
      "outputs": [],
      "payable": false,
      "stateMutability": "nonpayable",
      "type": "function"
    },
    {
      "constant": false,
      "inputs": [],
      "name": "getProducts",
      "outputs": [],
      "payable": false,
      "stateMutability": "nonpayable",
      "type": "function"
    },
    {
      "constant": true,
      "inputs": [],
      "name": "getClients",
      "outputs": [
        {
          "internalType": "address[16]",
          "name": "",
          "type": "address[16]"
        }
      ],
      "payable": false,
      "stateMutability": "view",
      "type": "function"
    },
    {
      "constant": true,
      "inputs": [],
      "name": "production",
      "outputs": [
        {
          "components": [
            {
              "internalType": "string",
              "name": "Name",
              "type": "string"
            },
            {
              "internalType": "uint256",
              "name": "Quantity",
              "type": "uint256"
            }
          ],
          "internalType": "struct Manufacturing.Product[]",
          "name": "",
          "type": "tuple[]"
        }
      ],
      "payable": false,
      "stateMutability": "view",
      "type": "function"
    }
  ],
  "bytecode": "0x608060405234801561001057600080fd5b506114f6806100206000396000f3fe608060405234801561001057600080fd5b50600436106100f55760003560e01c80636db809951161009757806391347df41161006657806391347df414610206578063a807766614610236578063c29b2f2014610240578063f88af21d1461024a576100f5565b80636db80995146101905780637155f2c6146101ae578063752f00a6146101de5780637ef91424146101fc576100f5565b80631ca679c0116100d35780631ca679c01461014057806351e971031461014a57806357f103e51461016857806363050f8b14610186576100f5565b8063041ac087146100fa57806305e88b69146101045780630c1b7c1e14610122575b600080fd5b61010261027a565b005b61010c610285565b60405161011991906112ea565b60405180910390f35b61012a610390565b604051610137919061130c565b60405180910390f35b6101486104d0565b005b6101526104e0565b60405161015f919061130c565b60405180910390f35b610170610620565b60405161017d919061130c565b60405180910390f35b61018e6107f0565b005b6101986107fb565b6040516101a591906112ce565b60405180910390f35b6101c860048036036101c39190810190610e12565b61087c565b6040516101d5919061130c565b60405180910390f35b6101e661096d565b6040516101f3919061130c565b60405180910390f35b610204610add565b005b610220600480360361021b9190810190610da8565b610ae8565b60405161022d919061130c565b60405180910390f35b61023e610b16565b005b610248610b21565b005b610264600480360361025f9190810190610de9565b610b55565b60405161027191906112b3565b60405180910390f35b610282610620565b50565b60606012805480602002602001604051908101604052809291908181526020016000905b828210156103875783829060005260206000209060020201604051806040016040529081600082018054600181600116156101000203166002900480601f0160208091040260200160405190810160405280929190818152602001828054600181600116156101000203166002900480156103655780601f1061033a57610100808354040283529160200191610365565b820191906000526020600020905b81548152906001019060200180831161034857829003601f168201915b50505050508152602001600182015481525050815260200190600101906102a9565b50505050905090565b600061039a610b88565b604051806020016040528060018152509050600160136040516103bc90611289565b90815260200160405180910390205410156103d657600080fd5b806000015160136040516103e990611289565b908152602001604051809103902060008282548161040357fe5b0492505081905591506040518060400160405280600681526020017f53637265656e00000000000000000000000000000000000000000000000000008152506010600001908051906020019061045a929190610b9b565b50816010600101819055506012601090806001815401808255809150509060018203906000526020600020906002020160009091929091909150600082018160000190805460018160011615610100020316600290046104bb929190610c1b565b50600182015481600101555050508191505090565b6104dd600280600161087c565b50565b60006104ea610ca2565b6040518060200160405280600181525090506001601360405161050c90611235565b908152602001604051809103902054101561052657600080fd5b8060000151601360405161053990611235565b908152602001604051809103902060008282548161055357fe5b0492505081905591506040518060400160405280600781526020017f4261747465727900000000000000000000000000000000000000000000000000815250601060000190805190602001906105aa929190610b9b565b508160106001018190555060126010908060018154018082558091505090600182039060005260206000209060020201600090919290919091506000820181600001908054600181600116156101000203166002900461060b929190610c1b565b50600182015481600101555050508191505090565b600061062a610cb5565b6040518060800160405280600a8152602001600281526020016002815260200160028152509050600a601360405161066190611220565b9081526020016040518091039020541015801561069b5750600260136040516106899061120b565b90815260200160405180910390205410155b80156106c45750600260136040516106b29061125f565b90815260200160405180910390205410155b80156106ed5750600260136040516106db9061124a565b90815260200160405180910390205410155b6106f657600080fd5b8060000151601360405161070990611220565b908152602001604051809103902060008282548161072357fe5b0492505081905591506040518060400160405280600581526020017f4672616d650000000000000000000000000000000000000000000000000000008152506010600001908051906020019061077a929190610b9b565b50816010600101819055506012601090806001815401808255809150509060018203906000526020600020906002020160009091929091909150600082018160000190805460018160011615610100020316600290046107db929190610c1b565b50600182015481600101555050508191505090565b6107f86104e0565b50565b610803610cdd565b6000601080602002604051908101604052809291908260108015610872576020028201915b8160009054906101000a900473ffffffffffffffffffffffffffffffffffffffff1673ffffffffffffffffffffffffffffffffffffffff1681526020019060010190808311610828575b5050505050905090565b600060028410158015610890575060028310155b801561089d575060018210155b6108a657600080fd5b6040518060400160405280600481526020017f446f6f7200000000000000000000000000000000000000000000000000000000815250601060000190805190602001906108f4929190610b9b565b5080601060010181905550601260109080600181540180825580915050906001820390600052602060002090600202016000909192909190915060008201816000019080546001816001161561010002031660029004610955929190610c1b565b50600182015481600101555050508090509392505050565b60006001601360405161097f9061129e565b908152602001604051809103902054101580156109b95750600160136040516109a790611274565b90815260200160405180910390205410155b6109c257600080fd5b6109ca610d00565b60405180604001604052806001815260200160018152509050806020015160136040516109f69061129e565b9081526020016040518091039020600082825481610a1057fe5b0492505081905591506040518060400160405280600681526020017f427574746f6e000000000000000000000000000000000000000000000000000081525060106000019080519060200190610a67929190610b9b565b5081601060010181905550601260109080600181540180825580915050906001820390600052602060002090600202016000909192909190915060008201816000019080546001816001161561010002031660029004610ac8929190610c1b565b50600182015481600101555050508191505090565b610ae5610390565b50565b6013818051602081018201805184825260208301602085012081835280955050505050506000915090505481565b610b1e61096d565b50565b610b2e600280600161087c565b50610b37610620565b50610b4061096d565b50610b49610390565b50610b526104e0565b50565b60008160108110610b6257fe5b016000915054906101000a900473ffffffffffffffffffffffffffffffffffffffff1681565b6040518060200160405280600081525090565b828054600181600116156101000203166002900490600052602060002090601f016020900481019282601f10610bdc57805160ff1916838001178555610c0a565b82800160010185558215610c0a579182015b82811115610c09578251825591602001919060010190610bee565b5b509050610c179190610d1a565b5090565b828054600181600116156101000203166002900490600052602060002090601f016020900481019282601f10610c545780548555610c91565b82800160010185558215610c9157600052602060002091601f016020900482015b82811115610c90578254825591600101919060010190610c75565b5b509050610c9e9190610d1a565b5090565b6040518060200160405280600081525090565b6040518060800160405280600081526020016000815260200160008152602001600081525090565b604051806102000160405280601090602082028038833980820191505090505090565b604051806040016040528060008152602001600081525090565b610d3c91905b80821115610d38576000816000905550600101610d20565b5090565b90565b600082601f830112610d5057600080fd5b8135610d63610d5e82611354565b611327565b91508082526020830160208301858383011115610d7f57600080fd5b610d8a838284611449565b50505092915050565b600081359050610da28161149c565b92915050565b600060208284031215610dba57600080fd5b600082013567ffffffffffffffff811115610dd457600080fd5b610de084828501610d3f565b91505092915050565b600060208284031215610dfb57600080fd5b6000610e0984828501610d93565b91505092915050565b600080600060608486031215610e2757600080fd5b6000610e3586828701610d93565b9350506020610e4686828701610d93565b9250506040610e5786828701610d93565b9150509250925092565b6000610e6d8383610e8d565b60208301905092915050565b6000610e8583836111b0565b905092915050565b610e968161140d565b82525050565b610ea58161140d565b82525050565b610eb48161139a565b610ebe81846113d5565b9250610ec982611380565b8060005b83811015610efa578151610ee18782610e61565b9650610eec836113bb565b925050600181019050610ecd565b505050505050565b6000610f0d826113a5565b610f1781856113e0565b935083602082028501610f298561138a565b8060005b85811015610f655784840389528151610f468582610e79565b9450610f51836113c8565b925060208a01995050600181019050610f2d565b50829750879550505050505092915050565b6000610f82826113b0565b610f8c81856113f1565b9350610f9c818560208601611458565b610fa58161148b565b840191505092915050565b6000610fbd600683611402565b91507f70756c6c657900000000000000000000000000000000000000000000000000006000830152600682019050919050565b6000610ffd600b83611402565b91507f737465656c5f73686565740000000000000000000000000000000000000000006000830152600b82019050919050565b600061103d600a83611402565b91507f636f6e74726f6c6c6572000000000000000000000000000000000000000000006000830152600a82019050919050565b600061107d600a83611402565b91507f737465656c6361626c65000000000000000000000000000000000000000000006000830152600a82019050919050565b60006110bd600583611402565b91507f6d6f746f720000000000000000000000000000000000000000000000000000006000830152600582019050919050565b60006110fd600883611402565b91507f6c65646c696768740000000000000000000000000000000000000000000000006000830152600882019050919050565b600061113d600683611402565b91507f73637265656e00000000000000000000000000000000000000000000000000006000830152600682019050919050565b600061117d600683611402565b91507f627574746f6e00000000000000000000000000000000000000000000000000006000830152600682019050919050565b600060408301600083015184820360008601526111cd8282610f77565b91505060208301516111e260208601826111ed565b508091505092915050565b6111f68161143f565b82525050565b6112058161143f565b82525050565b600061121682610fb0565b9150819050919050565b600061122b82610ff0565b9150819050919050565b600061124082611030565b9150819050919050565b600061125582611070565b9150819050919050565b600061126a826110b0565b9150819050919050565b600061127f826110f0565b9150819050919050565b600061129482611130565b9150819050919050565b60006112a982611170565b9150819050919050565b60006020820190506112c86000830184610e9c565b92915050565b6000610200820190506112e46000830184610eab565b92915050565b600060208201905081810360008301526113048184610f02565b905092915050565b600060208201905061132160008301846111fc565b92915050565b6000604051905081810181811067ffffffffffffffff8211171561134a57600080fd5b8060405250919050565b600067ffffffffffffffff82111561136b57600080fd5b601f19601f8301169050602081019050919050565b6000819050919050565b6000819050602082019050919050565b600060109050919050565b600081519050919050565b600081519050919050565b6000602082019050919050565b6000602082019050919050565b600081905092915050565b600082825260208201905092915050565b600082825260208201905092915050565b600081905092915050565b60006114188261141f565b9050919050565b600073ffffffffffffffffffffffffffffffffffffffff82169050919050565b6000819050919050565b82818337600083830152505050565b60005b8381101561147657808201518184015260208101905061145b565b83811115611485576000848401525b50505050565b6000601f19601f8301169050919050565b6114a58161143f565b81146114b057600080fd5b5056fea365627a7a7231582065b6ea2159eef5ce2dff45261335550b5604b9b58f08ab017eff5b007500b8916c6578706572696d656e74616cf564736f6c63430005100040",
  "source": "// SPDX-License-Identifier: MIT\npragma solidity >=0.4.22 <0.8.0;\npragma experimental ABIEncoderV2;\n\ncontract Manufacturing {\n    \n    address[16] public clients;\n    \n    struct Product {\n        string Name;\n        uint256 Quantity;\n    }\n    \n    struct Door{ \n        uint256 steel_panel; \n        uint256 rails; \n        uint256 sensor;\n    } \n\n    struct Frame{\n        uint256 steel_sheet; //10\n        uint256 pulley; //2\n        uint256 motor; //2\n        uint256 steelcable; //2\n    }\n    \n    struct Button{\n        uint256 ledlight;\n        uint256 button;\n    }\n    \n    struct Display{\n        uint256 screen;\n    }\n    \n    struct Battery{\n        uint256 controller;\n    }\n    \n    Product productStruct;\n    Product[] productList;    \n    \n\n    mapping (string => uint256) public materials;\n\n\n//    function getMaterials(uint256 _steel_panel, uint256 _rails, uint256 _sensor, uint256 _steel_sheet, uint256 _pulley, uint256 _motor, uint256 _steelcable, uint256 _ledcable, uint256 _ledlight, uint256 _button, uint256 _screen, uint256 _controller) public returns (materials[]){\n//         this.steel_panel = _steel_panel;\n//         materials.push (_steel_pannel);\n//         this.rails = _rails;\n//         materials.pus(_rails);\n//         this.sensor = _sensor;\n//         materials.push (_sensor);\n//         this.steel_sheet = _steel_sheet;\n//         materials.push(_steel_sheet);\n//         this.pulley = _pulley;\n//         materials.push(_pulley);\n//         this.motor = _motor;\n//         materials.push(_motor);\n//         this.steelcable = _steelcable;\n//         materials.push(_steelcable);\n//         this.ledlight = _ledlight;\n//         materials.push(_ledlight);\n//         this.button = _button;\n//         materials.push(_button);\n//         this.screen = _screen;\n//         materials.push(_screen);\n//         this.controller = _controller;\n//         materials.push(_controller);\n//         return materials;\n//     }\n        // function callgetMaterials() public {\n        //     getMaterials(36,36,8,20,16,16,16,16,50,50,8,1);\n        // }\n    // constructor() public {\n        \n    //     materials[\"steel_panel\"] = 36;\n    //     materials[\"rails\"] = 36;\n    //     materials[\"sensor\"] = 8;\n    //     materials[\"steel_sheet\"] = 20;\n    //     materials[\"pulley\"] = 16;\n    //     materials[\"motor\"] = 16;\n    //     materials[\"steelcable\"] = 16;\n    //     materials[\"ledlight\"] = 50;\n    //     materials[\"button\"] = 50;\n    //     materials[\"screen\"] = 8;\n    //     materials[\"controller\"] = 1;\n\n    // }\n    \n    function doors( uint256 steel_panel, uint256 rails, uint256 sensor  ) public returns (uint256 numDoors) {\n        require (steel_panel >= 2 && rails >=2 &&  sensor  >=1 );      \n        productStruct.Name = \"Door\";\n        productStruct.Quantity = numDoors;\n        productList.push(productStruct);\n        return numDoors;\n    }\n\n    function frames() public returns (uint256 numFrames) {\n        Frame memory frame1 = Frame(10, 2, 2, 2);\n        require (materials[\"steel_sheet\"] >= 10 && materials[\"pulley\"] >= 2 && materials[\"motor\"] >= 2 && materials[\"steelcable\"] >= 2);\n        numFrames = materials[\"steel_sheet\"] /= frame1.steel_sheet;\n        productStruct.Name = \"Frame\";\n        productStruct.Quantity = numFrames;\n        productList.push(productStruct);\n        return numFrames;\n    }\n\n    function buttons() public returns (uint256 numButtons) {\n        require (materials[\"button\"] >= 1 && materials[\"ledlight\"] >=1);\n        Button memory button1 = Button(1, 1);\n        numButtons = materials[\"button\"] /= button1.button;\n        productStruct.Name = \"Button\";\n        productStruct.Quantity = numButtons;\n        productList.push(productStruct);\n        return numButtons;\n    }\n\n\n    function display() public returns (uint256 numDisplay){\n        Display memory display1 = Display(1);\n        require (materials[\"screen\"] >= 1);\n        numDisplay = materials[\"screen\"] /= display1.screen;\n        productStruct.Name = \"Screen\";\n        productStruct.Quantity = numDisplay;\n        productList.push(productStruct);\n        return numDisplay;\n    }\n\n    \n\n    function batteries() public returns (uint256 numBattery){\n        Battery memory battery1 = Battery(1);\n        require (materials[\"controller\"] >= 1);\n        numBattery = materials[\"controller\"] /= battery1.controller;\n        productStruct.Name = \"Battery\";\n        productStruct.Quantity = numBattery;\n        productList.push(productStruct);\n        return numBattery;\n    }\n\n    // gets all the doors\n    function getDoors() public {\n        doors(2,2,1);\n    }\n\n    // gets all the frames\n    function getFrames() public{\n        frames();\n\n    }\n\n    // gets all the buttons\n    function getButtons() public{\n        buttons();\n\n    }\n\n    // gets all the displays\n    function getDisplay() public {\n        display();\n    }\n\n    //gets all the batteries controllers\n    function getBatteries() public {\n        batteries();\n    }\n\n\n\n    // gets all the roducts regardless of their type\n    function getProducts() public {\n        doors(2,2,1);\n        frames();\n        buttons();\n        display();\n        batteries();\n    }\n\n    function getClients() public view returns (address[16] memory) {\n        return clients;\n    }\n\n\n\n    function production() public view returns (Product[] memory) {\n        return productList;\n\n    }\n}\n",
  "sourcePath": "/home/mrcbilou/week12/contracts/Manufacturing.sol",
  "compiler": {
    "name": "solc",
    "version": "0.5.16+commit.9c3226ce.Emscripten.clang"
  },
  "schemaVersion": "3.3.2",
  "updatedAt": "2020-12-08T21:22:15.299Z",
  "networkType": "ethereum",
  "devdoc": {
    "methods": {}
  },
  "userdoc": {
    "methods": {}
  }
}