{
  "contractName": "otherContract",
  "abi": [
    {
      "constant": true,
      "inputs": [],
      "name": "leurFonction",
      "outputs": [
        {
          "components": [
            {
              "internalType": "string",
              "name": "material",
              "type": "string"
            },
            {
              "internalType": "uint64",
              "name": "quantity",
              "type": "uint64"
            }
          ],
          "internalType": "struct otherContract.Material[]",
          "name": "material",
          "type": "tuple[]"
        }
      ],
      "payable": false,
      "stateMutability": "view",
      "type": "function"
    }
  ],
  "bytecode": "0x608060405234801561001057600080fd5b506103a1806100206000396000f3fe608060405234801561001057600080fd5b506004361061002b5760003560e01c80632add789014610030575b600080fd5b61003861004e565b604051610045919061028f565b60405180910390f35b60606002805480602002602001604051908101604052809291908181526020016000905b828210156101785783829060005260206000209060020201604051806040016040529081600082018054600181600116156101000203166002900480601f01602080910402602001604051908101604052809291908181526020018280546001816001161561010002031660029004801561012e5780601f106101035761010080835404028352916020019161012e565b820191906000526020600020905b81548152906001019060200180831161011157829003601f168201915b505050505081526020016001820160009054906101000a900467ffffffffffffffff1667ffffffffffffffff1667ffffffffffffffff168152505081526020019060010190610072565b50505050905090565b600061018d8383610243565b905092915050565b60006101a0826102c1565b6101aa81856102e4565b9350836020820285016101bc856102b1565b8060005b858110156101f857848403895281516101d98582610181565b94506101e4836102d7565b925060208a019950506001810190506101c0565b50829750879550505050505092915050565b6000610215826102cc565b61021f81856102f5565b935061022f81856020860161031a565b6102388161034d565b840191505092915050565b60006040830160008301518482036000860152610260828261020a565b91505060208301516102756020860182610280565b508091505092915050565b61028981610306565b82525050565b600060208201905081810360008301526102a98184610195565b905092915050565b6000819050602082019050919050565b600081519050919050565b600081519050919050565b6000602082019050919050565b600082825260208201905092915050565b600082825260208201905092915050565b600067ffffffffffffffff82169050919050565b60005b8381101561033857808201518184015260208101905061031d565b83811115610347576000848401525b50505050565b6000601f19601f830116905091905056fea365627a7a7231582006da1b8640ee8417f3c958be84fac07b1286c8ca2ce90dbf47e3666d0f6f0bd26c6578706572696d656e74616cf564736f6c63430005100040",
  "source": "// SPDX-License-Identifier: MIT\r\npragma solidity >=0.4.22 <0.8.0;\r\npragma experimental ABIEncoderV2;\r\n\r\ncontract otherContract {\r\n\r\n     struct Material {\r\n        string material;\r\n        uint64 quantity;\r\n    }\r\n   \r\n\r\n    Material materialStruct;\r\n    Material[] private LeurList;\r\n\r\n    function leurFonction() public view returns (Material[] memory material) {\r\n        return LeurList;\r\n    }\r\n\r\n}",
  "sourcePath": "C:\\Users\\User\\vendredi1\\Rocket_Elevators_Smart_Contracts\\contracts\\otherContract.sol",
  "compiler": {
    "name": "solc",
    "version": "0.5.16+commit.9c3226ce.Emscripten.clang"
  },
  "schemaVersion": "3.3.2",
  "updatedAt": "2020-12-11T21:00:54.951Z",
  "devdoc": {
    "methods": {}
  },
  "userdoc": {
    "methods": {}
  }
}